{
  "_format": "hh-sol-artifact-1",
  "contractName": "DappVotes",
  "sourceName": "contracts/DappVotes.sol",
  "abi": [
    {
      "anonymous": false,
      "inputs": [
        {
          "indexed": true,
          "internalType": "address",
          "name": "voter",
          "type": "address"
        },
        {
          "indexed": false,
          "internalType": "uint256",
          "name": "timestamp",
          "type": "uint256"
        }
      ],
      "name": "Voted",
      "type": "event"
    },
    {
      "inputs": [
        {
          "internalType": "uint256",
          "name": "id",
          "type": "uint256"
        },
        {
          "internalType": "string",
          "name": "name",
          "type": "string"
        },
        {
          "internalType": "string",
          "name": "image",
          "type": "string"
        }
      ],
      "name": "contest",
      "outputs": [],
      "stateMutability": "nonpayable",
      "type": "function"
    },
    {
      "inputs": [
        {
          "internalType": "string",
          "name": "image",
          "type": "string"
        },
        {
          "internalType": "string",
          "name": "title",
          "type": "string"
        },
        {
          "internalType": "string",
          "name": "description",
          "type": "string"
        },
        {
          "internalType": "uint256",
          "name": "startsAt",
          "type": "uint256"
        },
        {
          "internalType": "uint256",
          "name": "endsAt",
          "type": "uint256"
        }
      ],
      "name": "createPoll",
      "outputs": [],
      "stateMutability": "nonpayable",
      "type": "function"
    },
    {
      "inputs": [
        {
          "internalType": "uint256",
          "name": "id",
          "type": "uint256"
        }
      ],
      "name": "deletePoll",
      "outputs": [],
      "stateMutability": "nonpayable",
      "type": "function"
    },
    {
      "inputs": [
        {
          "internalType": "uint256",
          "name": "id",
          "type": "uint256"
        },
        {
          "internalType": "uint256",
          "name": "cid",
          "type": "uint256"
        }
      ],
      "name": "getContestant",
      "outputs": [
        {
          "components": [
            {
              "internalType": "uint256",
              "name": "id",
              "type": "uint256"
            },
            {
              "internalType": "string",
              "name": "image",
              "type": "string"
            },
            {
              "internalType": "string",
              "name": "name",
              "type": "string"
            },
            {
              "internalType": "address",
              "name": "voter",
              "type": "address"
            },
            {
              "internalType": "uint256",
              "name": "votes",
              "type": "uint256"
            },
            {
              "internalType": "address[]",
              "name": "voters",
              "type": "address[]"
            }
          ],
          "internalType": "struct DappVotes.ContestantStruct",
          "name": "",
          "type": "tuple"
        }
      ],
      "stateMutability": "view",
      "type": "function"
    },
    {
      "inputs": [
        {
          "internalType": "uint256",
          "name": "id",
          "type": "uint256"
        }
      ],
      "name": "getContestants",
      "outputs": [
        {
          "components": [
            {
              "internalType": "uint256",
              "name": "id",
              "type": "uint256"
            },
            {
              "internalType": "string",
              "name": "image",
              "type": "string"
            },
            {
              "internalType": "string",
              "name": "name",
              "type": "string"
            },
            {
              "internalType": "address",
              "name": "voter",
              "type": "address"
            },
            {
              "internalType": "uint256",
              "name": "votes",
              "type": "uint256"
            },
            {
              "internalType": "address[]",
              "name": "voters",
              "type": "address[]"
            }
          ],
          "internalType": "struct DappVotes.ContestantStruct[]",
          "name": "Contestants",
          "type": "tuple[]"
        }
      ],
      "stateMutability": "view",
      "type": "function"
    },
    {
      "inputs": [
        {
          "internalType": "uint256",
          "name": "id",
          "type": "uint256"
        }
      ],
      "name": "getPoll",
      "outputs": [
        {
          "components": [
            {
              "internalType": "uint256",
              "name": "id",
              "type": "uint256"
            },
            {
              "internalType": "string",
              "name": "image",
              "type": "string"
            },
            {
              "internalType": "string",
              "name": "title",
              "type": "string"
            },
            {
              "internalType": "string",
              "name": "description",
              "type": "string"
            },
            {
              "internalType": "uint256",
              "name": "votes",
              "type": "uint256"
            },
            {
              "internalType": "uint256",
              "name": "contestants",
              "type": "uint256"
            },
            {
              "internalType": "bool",
              "name": "deleted",
              "type": "bool"
            },
            {
              "internalType": "address",
              "name": "director",
              "type": "address"
            },
            {
              "internalType": "uint256",
              "name": "startsAt",
              "type": "uint256"
            },
            {
              "internalType": "uint256",
              "name": "endsAt",
              "type": "uint256"
            },
            {
              "internalType": "uint256",
              "name": "timestamp",
              "type": "uint256"
            },
            {
              "internalType": "address[]",
              "name": "voters",
              "type": "address[]"
            },
            {
              "internalType": "string[]",
              "name": "avatars",
              "type": "string[]"
            }
          ],
          "internalType": "struct DappVotes.PollStruct",
          "name": "",
          "type": "tuple"
        }
      ],
      "stateMutability": "view",
      "type": "function"
    },
    {
      "inputs": [],
      "name": "getPolls",
      "outputs": [
        {
          "components": [
            {
              "internalType": "uint256",
              "name": "id",
              "type": "uint256"
            },
            {
              "internalType": "string",
              "name": "image",
              "type": "string"
            },
            {
              "internalType": "string",
              "name": "title",
              "type": "string"
            },
            {
              "internalType": "string",
              "name": "description",
              "type": "string"
            },
            {
              "internalType": "uint256",
              "name": "votes",
              "type": "uint256"
            },
            {
              "internalType": "uint256",
              "name": "contestants",
              "type": "uint256"
            },
            {
              "internalType": "bool",
              "name": "deleted",
              "type": "bool"
            },
            {
              "internalType": "address",
              "name": "director",
              "type": "address"
            },
            {
              "internalType": "uint256",
              "name": "startsAt",
              "type": "uint256"
            },
            {
              "internalType": "uint256",
              "name": "endsAt",
              "type": "uint256"
            },
            {
              "internalType": "uint256",
              "name": "timestamp",
              "type": "uint256"
            },
            {
              "internalType": "address[]",
              "name": "voters",
              "type": "address[]"
            },
            {
              "internalType": "string[]",
              "name": "avatars",
              "type": "string[]"
            }
          ],
          "internalType": "struct DappVotes.PollStruct[]",
          "name": "Polls",
          "type": "tuple[]"
        }
      ],
      "stateMutability": "view",
      "type": "function"
    },
    {
      "inputs": [
        {
          "internalType": "uint256",
          "name": "id",
          "type": "uint256"
        },
        {
          "internalType": "string",
          "name": "image",
          "type": "string"
        },
        {
          "internalType": "string",
          "name": "title",
          "type": "string"
        },
        {
          "internalType": "string",
          "name": "description",
          "type": "string"
        },
        {
          "internalType": "uint256",
          "name": "startsAt",
          "type": "uint256"
        },
        {
          "internalType": "uint256",
          "name": "endsAt",
          "type": "uint256"
        }
      ],
      "name": "updatePoll",
      "outputs": [],
      "stateMutability": "nonpayable",
      "type": "function"
    },
    {
      "inputs": [
        {
          "internalType": "uint256",
          "name": "id",
          "type": "uint256"
        },
        {
          "internalType": "uint256",
          "name": "cid",
          "type": "uint256"
        }
      ],
      "name": "vote",
      "outputs": [],
      "stateMutability": "nonpayable",
      "type": "function"
    }
  ],
  "bytecode": "0x608060405234801561001057600080fd5b5061254f806100206000396000f3fe608060405234801561001057600080fd5b50600436106100935760003560e01c806366dd51dc1161006657806366dd51dc146100fe578063b384abef14610111578063cee9dc4514610124578063d343641114610144578063f0d0bc451461016457600080fd5b8063029433f014610098578063120fe89b146100ad5780631a8cbcaa146100cb5780631f35b51d146100eb575b600080fd5b6100ab6100a6366004611d4e565b610177565b005b6100b56103eb565b6040516100c29190611fca565b60405180910390f35b6100de6100d936600461202c565b610866565b6040516100c29190612045565b6100ab6100f936600461202c565b610be8565b6100ab61010c36600461205f565b610d17565b6100ab61011f3660046120cc565b61104f565b61013761013236600461202c565b61132c565b6040516100c29190612165565b6101576101523660046120cc565b611630565b6040516100c291906121ba565b6100ab6101723660046121cd565b61182b565b60008681526002602052604090205460ff166101ae5760405162461bcd60e51b81526004016101a590612267565b60405180910390fd5b60008681526003602052604090206006015461010090046001600160a01b031633146102125760405162461bcd60e51b8152602060048201526013602482015272556e617574686f72697a656420656e7469747960681b60448201526064016101a5565b60008451116102635760405162461bcd60e51b815260206004820181905260248201527f506f6c6c2d5469746c65206669656c642063616e6e6f7420626520656d70747960448201526064016101a5565b60008351116102845760405162461bcd60e51b81526004016101a59061228f565b60008551116102a55760405162461bcd60e51b81526004016101a5906122d5565b60008681526003602052604090206006015460ff16156103075760405162461bcd60e51b815260206004820152601960248201527f506f6c6c20616c7265616479206265656e2064656c657465640000000000000060448201526064016101a5565b6000868152600360205260409020600401546001116103615760405162461bcd60e51b8152602060048201526016602482015275506f6c6c2068617320766f74657320616c726561647960501b60448201526064016101a5565b8181116103805760405162461bcd60e51b81526004016101a590612319565b600086815260036020526040902060020161039b85826123ea565b506000868152600360208190526040909120016103b884826123ea565b50600086815260036020526040902060078101839055600881018290556001016103e286826123ea565b50505050505050565b6060600060015b60005481116104345760008181526003602052604090206006015460ff16610422578161041e816124c0565b9250505b8061042c816124c0565b9150506103f2565b508067ffffffffffffffff81111561044e5761044e611cab565b60405190808252806020026020018201604052801561048757816020015b610474611ad3565b81526020019060019003908161046c5790505b509150600060015b60005481116108605760008181526003602052604090206006015460ff1661084e5760036000828152602001908152602001600020604051806101a0016040529081600082015481526020016001820180546104ea90612361565b80601f016020809104026020016040519081016040528092919081815260200182805461051690612361565b80156105635780601f1061053857610100808354040283529160200191610563565b820191906000526020600020905b81548152906001019060200180831161054657829003601f168201915b5050505050815260200160028201805461057c90612361565b80601f01602080910402602001604051908101604052809291908181526020018280546105a890612361565b80156105f55780601f106105ca576101008083540402835291602001916105f5565b820191906000526020600020905b8154815290600101906020018083116105d857829003601f168201915b5050505050815260200160038201805461060e90612361565b80601f016020809104026020016040519081016040528092919081815260200182805461063a90612361565b80156106875780601f1061065c57610100808354040283529160200191610687565b820191906000526020600020905b81548152906001019060200180831161066a57829003601f168201915b505050918352505060048201546020808301919091526005830154604080840191909152600684015460ff8116151560608501526001600160a01b0361010091829004166080850152600785015460a0850152600885015460c0850152600985015460e0850152600a850180548351818602810186019094528084529190940193919283018282801561074357602002820191906000526020600020905b81546001600160a01b03168152600190910190602001808311610725575b50505050508152602001600b8201805480602002602001604051908101604052809291908181526020016000905b8282101561081d57838290600052602060002001805461079090612361565b80601f01602080910402602001604051908101604052809291908181526020018280546107bc90612361565b80156108095780601f106107de57610100808354040283529160200191610809565b820191906000526020600020905b8154815290600101906020018083116107ec57829003601f168201915b505050505081526020019060010190610771565b50505091525085905083610830816124c0565b945081518110610842576108426124d9565b60200260200101819052505b80610858816124c0565b91505061048f565b50505090565b61086e611ad3565b60036000838152602001908152602001600020604051806101a0016040529081600082015481526020016001820180546108a790612361565b80601f01602080910402602001604051908101604052809291908181526020018280546108d390612361565b80156109205780601f106108f557610100808354040283529160200191610920565b820191906000526020600020905b81548152906001019060200180831161090357829003601f168201915b5050505050815260200160028201805461093990612361565b80601f016020809104026020016040519081016040528092919081815260200182805461096590612361565b80156109b25780601f10610987576101008083540402835291602001916109b2565b820191906000526020600020905b81548152906001019060200180831161099557829003601f168201915b505050505081526020016003820180546109cb90612361565b80601f01602080910402602001604051908101604052809291908181526020018280546109f790612361565b8015610a445780601f10610a1957610100808354040283529160200191610a44565b820191906000526020600020905b815481529060010190602001808311610a2757829003601f168201915b505050918352505060048201546020808301919091526005830154604080840191909152600684015460ff8116151560608501526001600160a01b0361010091829004166080850152600785015460a0850152600885015460c0850152600985015460e0850152600a8501805483518186028101860190945280845291909401939192830182828015610b0057602002820191906000526020600020905b81546001600160a01b03168152600190910190602001808311610ae2575b50505050508152602001600b8201805480602002602001604051908101604052809291908181526020016000905b82821015610bda578382906000526020600020018054610b4d90612361565b80601f0160208091040260200160405190810160405280929190818152602001828054610b7990612361565b8015610bc65780601f10610b9b57610100808354040283529160200191610bc6565b820191906000526020600020905b815481529060010190602001808311610ba957829003601f168201915b505050505081526020019060010190610b2e565b505050915250909392505050565b60008181526002602052604090205460ff16610c165760405162461bcd60e51b81526004016101a590612267565b60008181526003602052604090206006015461010090046001600160a01b03163314610c7a5760405162461bcd60e51b8152602060048201526013602482015272556e617574686f72697a656420656e7469747960681b60448201526064016101a5565b600081815260036020526040902060040154600111610cf95760405162461bcd60e51b815260206004820152603560248201527f506f6c6c2068617320766f74657320616c72656164792c2063616e206e6f6c6f6044820152741b99d95c8819195b195d19481d1a1a5cc81c1bdb1b605a1b60648201526084016101a5565b6000908152600360205260409020600601805460ff19166001179055565b60008381526002602052604090205460ff16610d455760405162461bcd60e51b81526004016101a590612267565b6000825111610da45760405162461bcd60e51b815260206004820152602560248201527f436f6e74657374616e74206e616d65206669656c642063616e6e6f7420626520604482015264656d70747960d81b60648201526084016101a5565b6000815111610e085760405162461bcd60e51b815260206004820152602a60248201527f436f6e74657374616e7420696d6167652075726c206669656c642063616e6e6f6044820152697420626520656d70747960b01b60648201526084016101a5565b600083815260036020526040902060040154600111610e9d5760405162461bcd60e51b815260206004820152604560248201527f566f74696e6720686173207374617274656420696e207468697320706f6c6c2060448201527f616c72656164792e20596f752063616e6e6f7420636f6e7465737420616e796c60648201526437b733b2b960d91b608482015260a4016101a5565b600083815260056020908152604080832033845290915290205460ff1615610f1a5760405162461bcd60e51b815260206004820152602a60248201527f416c7265616479206120436f6e74657374616e742e2043616e6e6f7420636f6e6044820152693a32b9ba1030b3b0b4b760b11b60648201526084016101a5565b610f28600180546001019055565b610f30611b46565b6040818101849052602080830184815233606085015260018054855260008881526006845284812086518252909352929091208351815590518392820190610f7890826123ea565b5060408201516002820190610f8d90826123ea565b5060608201516003820180546001600160a01b0319166001600160a01b039092169190911790556080820151600482015560a08201518051610fd9916005840191602090910190611b85565b50505060008481526005602090815260408083203384528252808320805460ff1916600190811790915587845260038352908320600b0180549182018155835291200161102683826123ea565b506000848152600360205260408120600501805491611044836124c0565b919050555050505050565b60008281526002602052604090205460ff1661107d5760405162461bcd60e51b81526004016101a590612267565b600082815260046020908152604080832033845290915290205460ff16156110d75760405162461bcd60e51b815260206004820152600d60248201526c105b1c9958591e481d9bdd1959609a1b60448201526064016101a5565b60008281526003602052604090206006015460ff16156111315760405162461bcd60e51b8152602060048201526015602482015274506f6c6c696e67206e6f7420617661696c61626c6560581b60448201526064016101a5565b60008281526003602052604090206005015460011061118b5760405162461bcd60e51b81526020600482015260166024820152754e6f7420656e6f75676820636f6e74657374616e747360501b60448201526064016101a5565b6000828152600360205260409020600701546111a5611ab4565b101580156111ca57506000828152600360205260409020600801546111c8611ab4565b105b6112165760405162461bcd60e51b815260206004820152601960248201527f566f74696e67206d75737420626520696e2073657373696f6e0000000000000060448201526064016101a5565b6000828152600360205260408120600401805491611233836124c0565b90915550506000828152600360209081526040808320600a0180546001810182559084528284200180546001600160a01b0319163317905584835260068252808320848452909152812060040180549161128c836124c0565b9091555050600082815260066020908152604080832084845282528083206005018054600181810183559185528385200180546001600160a01b03191633908117909155868552600484528285208186529093529220805460ff19169092179091557f4d99b957a2bc29a30ebd96a7be8e68fe50a3c701db28a91436490b7d53870ca4611317611ab4565b60405190815260200160405180910390a25050565b6060600060015b600154811161137d57600084815260066020908152604080832084845290915290205481900361136b5781611367816124c0565b9250505b80611375816124c0565b915050611333565b508067ffffffffffffffff81111561139757611397611cab565b6040519080825280602002602001820160405280156113d057816020015b6113bd611b46565b8152602001906001900390816113b55790505b509150600060015b6001548111611628576000858152600660209081526040808320848452909152902054819003611616576000858152600660209081526040808320848452825291829020825160c0810190935280548352600181018054919284019161143d90612361565b80601f016020809104026020016040519081016040528092919081815260200182805461146990612361565b80156114b65780601f1061148b576101008083540402835291602001916114b6565b820191906000526020600020905b81548152906001019060200180831161149957829003601f168201915b505050505081526020016002820180546114cf90612361565b80601f01602080910402602001604051908101604052809291908181526020018280546114fb90612361565b80156115485780601f1061151d57610100808354040283529160200191611548565b820191906000526020600020905b81548152906001019060200180831161152b57829003601f168201915b505050505081526020016003820160009054906101000a90046001600160a01b03166001600160a01b03166001600160a01b0316815260200160048201548152602001600582018054806020026020016040519081016040528092919081815260200182805480156115e357602002820191906000526020600020905b81546001600160a01b031681526001909101906020018083116115c5575b5050505050815250508483806115f8906124c0565b94508151811061160a5761160a6124d9565b60200260200101819052505b80611620816124c0565b9150506113d8565b505050919050565b611638611b46565b6000838152600660209081526040808320858452825291829020825160c0810190935280548352600181018054919284019161167390612361565b80601f016020809104026020016040519081016040528092919081815260200182805461169f90612361565b80156116ec5780601f106116c1576101008083540402835291602001916116ec565b820191906000526020600020905b8154815290600101906020018083116116cf57829003601f168201915b5050505050815260200160028201805461170590612361565b80601f016020809104026020016040519081016040528092919081815260200182805461173190612361565b801561177e5780601f106117535761010080835404028352916020019161177e565b820191906000526020600020905b81548152906001019060200180831161176157829003601f168201915b505050505081526020016003820160009054906101000a90046001600160a01b03166001600160a01b03166001600160a01b03168152602001600482015481526020016005820180548060200260200160405190810160405280929190818152602001828054801561181957602002820191906000526020600020905b81546001600160a01b031681526001909101906020018083116117fb575b50505050508152505090505b92915050565b600084511161187c5760405162461bcd60e51b815260206004820181905260248201527f506f6c6c2d5469746c65206669656c642063616e6e6f7420626520656d70747960448201526064016101a5565b600083511161189d5760405162461bcd60e51b81526004016101a59061228f565b60008551116118be5760405162461bcd60e51b81526004016101a5906122d5565b600082116119185760405162461bcd60e51b815260206004820152602160248201527f53746172742064617465206d7573742062652067726561746572207468616e206044820152600360fc1b60648201526084016101a5565b8181116119375760405162461bcd60e51b81526004016101a590612319565b611945600080546001019055565b61194d611ad3565b6000548152604081018590526060810184905260208101869052610100810183905261012081018290523360e0820152611985611ab4565b61014082015280516000908152600360209081526040909120825181559082015182919060018201906119b890826123ea565b50604082015160028201906119cd90826123ea565b50606082015160038201906119e290826123ea565b506080820151600482015560a0820151600582015560c082015160068201805460e08501516001600160a81b0319909116921515610100600160a81b031916929092176101006001600160a01b0390931683021790558201516007820155610120820151600882015561014082015160098201556101608201518051611a7291600a840191602090910190611b85565b506101808201518051611a8f91600b840191602090910190611bea565b505090516000908152600260205260409020805460ff19166001179055505050505050565b6000611ac2426103e86124ef565b611ace906103e8612506565b905090565b604051806101a0016040528060008152602001606081526020016060815260200160608152602001600081526020016000815260200160001515815260200160006001600160a01b0316815260200160008152602001600081526020016000815260200160608152602001606081525090565b6040518060c0016040528060008152602001606081526020016060815260200160006001600160a01b0316815260200160008152602001606081525090565b828054828255906000526020600020908101928215611bda579160200282015b82811115611bda57825182546001600160a01b0319166001600160a01b03909116178255602090920191600190910190611ba5565b50611be6929150611c3c565b5090565b828054828255906000526020600020908101928215611c30579160200282015b82811115611c305782518290611c2090826123ea565b5091602001919060010190611c0a565b50611be6929150611c51565b5b80821115611be65760008155600101611c3d565b80821115611be6576000611c658282611c6e565b50600101611c51565b508054611c7a90612361565b6000825580601f10611c8a575050565b601f016020900490600052602060002090810190611ca89190611c3c565b50565b634e487b7160e01b600052604160045260246000fd5b600082601f830112611cd257600080fd5b813567ffffffffffffffff80821115611ced57611ced611cab565b604051601f8301601f19908116603f01168101908282118183101715611d1557611d15611cab565b81604052838152866020858801011115611d2e57600080fd5b836020870160208301376000602085830101528094505050505092915050565b60008060008060008060c08789031215611d6757600080fd5b86359550602087013567ffffffffffffffff80821115611d8657600080fd5b611d928a838b01611cc1565b96506040890135915080821115611da857600080fd5b611db48a838b01611cc1565b95506060890135915080821115611dca57600080fd5b50611dd789828a01611cc1565b9350506080870135915060a087013590509295509295509295565b6000815180845260005b81811015611e1857602081850181015186830182015201611dfc565b506000602082860101526020601f19601f83011685010191505092915050565b600081518084526020808501945080840160005b83811015611e715781516001600160a01b031687529582019590820190600101611e4c565b509495945050505050565b600081518084526020808501808196508360051b8101915082860160005b85811015611ec4578284038952611eb2848351611df2565b98850198935090840190600101611e9a565b5091979650505050505050565b60006101a0825184526020830151816020860152611ef182860182611df2565b91505060408301518482036040860152611f0b8282611df2565b91505060608301518482036060860152611f258282611df2565b9150506080830151608085015260a083015160a085015260c0830151611f4f60c086018215159052565b5060e0830151611f6a60e08601826001600160a01b03169052565b506101008381015190850152610120808401519085015261014080840151908501526101608084015185830382870152611fa48382611e38565b925050506101808084015185830382870152611fc08382611e7c565b9695505050505050565b6000602080830181845280855180835260408601915060408160051b870101925083870160005b8281101561201f57603f1988860301845261200d858351611ed1565b94509285019290850190600101611ff1565b5092979650505050505050565b60006020828403121561203e57600080fd5b5035919050565b6020815260006120586020830184611ed1565b9392505050565b60008060006060848603121561207457600080fd5b83359250602084013567ffffffffffffffff8082111561209357600080fd5b61209f87838801611cc1565b935060408601359150808211156120b557600080fd5b506120c286828701611cc1565b9150509250925092565b600080604083850312156120df57600080fd5b50508035926020909101359150565b805182526000602082015160c0602085015261210d60c0850182611df2565b9050604083015184820360408601526121268282611df2565b91505060018060a01b0360608401511660608501526080830151608085015260a083015184820360a086015261215c8282611e38565b95945050505050565b6000602080830181845280855180835260408601915060408160051b870101925083870160005b8281101561201f57603f198886030184526121a88583516120ee565b9450928501929085019060010161218c565b60208152600061205860208301846120ee565b600080600080600060a086880312156121e557600080fd5b853567ffffffffffffffff808211156121fd57600080fd5b61220989838a01611cc1565b9650602088013591508082111561221f57600080fd5b61222b89838a01611cc1565b9550604088013591508082111561224157600080fd5b5061224e88828901611cc1565b9598949750949560608101359550608001359392505050565b6020808252600e908201526d141bdb1b081b9bdd08199bdd5b9960921b604082015260600190565b60208082526026908201527f506f6c6c2d4465736372697074696f6e206669656c642063616e6e6f7420626560408201526520656d70747960d01b606082015260800190565b60208082526024908201527f506f6c6c2d496d6167652055524c206669656c642063616e6e6f7420626520656040820152636d70747960e01b606082015260800190565b60208082526028908201527f456e642064617465206d7573742062652067726561746572207468616e207374604082015267617274206461746560c01b606082015260800190565b600181811c9082168061237557607f821691505b60208210810361239557634e487b7160e01b600052602260045260246000fd5b50919050565b601f8211156123e557600081815260208120601f850160051c810160208610156123c25750805b601f850160051c820191505b818110156123e1578281556001016123ce565b5050505b505050565b815167ffffffffffffffff81111561240457612404611cab565b612418816124128454612361565b8461239b565b602080601f83116001811461244d57600084156124355750858301515b600019600386901b1c1916600185901b1785556123e1565b600085815260208120601f198616915b8281101561247c5788860151825594840194600190910190840161245d565b508582101561249a5787850151600019600388901b60f8161c191681555b5050505050600190811b01905550565b634e487b7160e01b600052601160045260246000fd5b6000600182016124d2576124d26124aa565b5060010190565b634e487b7160e01b600052603260045260246000fd5b8082028115828204841417611825576118256124aa565b80820180821115611825576118256124aa56fea264697066735822122056f0dac4501242a71038dff1f34a01db7abf8c1fba9abae3b8a5d393a91e1c8764736f6c63430008110033",
  "linkReferences": {},
  "deployedLinkReferences": {}
}